:100000000C9434000C9449000C9449000C94490061
:100010000C9449000C9449000C9449000C9449003C
:100020000C9449000C9449000C9449000C9449002C
:100030000C9449000C9449000C9449000C9449001C
:100040000C9449000C9449000C9449000C9449000C
:100050000C9449000C9449000C9449000C944900FC
:100060000C9449000C94490011241FBECFEFD8E036
:10007000DEBFCDBF11E0A0E0B1E0ECE2F1E002C0F4
:1000800005900D92A631B107D9F70E948F000C940C
:1000900094000C94000083EF91E00197F1F700C009
:1000A000000083EF91E00197F1F700C0000083EFBB
:1000B00091E00197F1F700C0000083EF91E0019714
:1000C000F1F700C0000083EF91E00197F1F700C065
:1000D00000000895662399F0FC016150262F30E05E
:1000E0002F5F3F4F280F391F919195B983EF91E012
:1000F0000197F1F700C00000E217F307A9F70E948B
:100100004B0008958FEF84B96BE08BE091E00E9483
:100110006A006BE080E091E00E946A00F5CF0E94E7
:0C012000820080E090E00895F894FFCF8A
:10012C000E18BD763C3C3C76BD180E7018FDB63CE6
:06013C003C3CB6FD18700A
:00000001FF
